:100000000C942A000C941C160C9447000C94470086
:100010000C9447000C9447000C9447000C94470044
:100020000C9447000C9447000C9447000C94470034
:100030000C9447000C9447000C9447000C94470024
:100040000C9447000C9447000C9447000C94470014
:100050000C94470011241FBECFE5D8E0DEBFCDBF12
:1000600011E0A0E6B0E0EAEBF2E302C005900D92E9
:10007000AA3AB107D9F711E0AAEAB1E001C01D928E
:10008000A83BB107E1F70E949F180C945B190C94F0
:100090000000EF92FF920F931F937B018C0120E0F1
:1000A00030E040E05FE40E94F50388238CF0C80153
:1000B000B70120E030E040E05FE40E94C1010E940F
:1000C00055049B01AC01205030404040504806C0D0
:1000D000C801B7010E9455049B01AC01B901CA01D6
:1000E0001F910F91FF90EF900895A0E0B0E0EBE733
:1000F000F0E00C94A818DC012B01FA019C919230DD
:1001000008F439C1EB018881823008F433C194309E
:1001100069F4843009F02FC111969C91119789815F
:10012000981709F428C1A0E6B0E025C1843009F48D
:1001300021C18230A9F4923009F01DC19A01AD01AC
:1001400088E0EA010990AE01E90109929E0181501F
:10015000C1F7E201898111969C918923818308C1AD
:10016000923009F407C112962D903C901397EB0141
:100170008A819B811496AD90BD90CD90DC901797AD
:10018000EC80FD800E811F819101281B390BB90184
:1001900037FF04C066277727621B730B6032710537
:1001A0000CF061C0121613066CF537014801062EDB
:1001B00004C096948794779467940A94D2F721E0C8
:1001C00030E040E050E004C0220F331F441F551FB1
:1001D0006A95D2F721503040404050402E213F21B7
:1001E00040235123211531054105510521F021E01E
:1001F00030E040E050E079018A01E628F72808293C
:1002000019293CC0232BD1F1260E371E350146019A
:10021000062E04C096948794779467940A94D2F734
:1002200021E030E040E050E004C0220F331F441FC3
:10023000551F6A95D2F721503040404050402A2146
:100240003B214C215D21211531054105510521F04E
:1002500021E030E040E050E059016A01A628B728CB
:10026000C828D9280BC0821593052CF01C01AA249C
:10027000BB24650103C0EE24FF24870111969C91E5
:10028000D20111968C91981709F445C0992339F041
:10029000A80197012A193B094C095D0906C0A6016E
:1002A00095012E193F09400B510B57FD08C01182D3
:1002B0003382228224833583468357831DC081E0A5
:1002C00081833382228288279927DC01821B930B4A
:1002D000A40BB50B84839583A683B7830DC0220F2F
:1002E000331F441F551F24833583468357838281E0
:1002F000938101979383828324813581468157813D
:10030000DA01C9010197A109B1098F5F9F4FAF4F72
:10031000BF4328F30BC0918333822282EA0CFB1C7B
:100320000C1D1D1DE482F5820683178383E0808304
:10033000248135814681578157FF1AC0C901AA27F8
:1003400097FDA095BA2F81709070A070B0705695EF
:10035000479537952795822B932BA42BB52B848318
:100360009583A683B7838281938101969383828349
:10037000DF0101C0D201CD01CDB7DEB7E2E10C94BF
:10038000C418A0E2B0E0E7ECF1E00C94B418698383
:100390007A838B839C832D833E834F835887E9E048
:1003A000EE2EF12CEC0EFD1ECE010196B7010E943F
:1003B00046068E010F5E1F4FCE010596B8010E94C2
:1003C00046068A8991E089278A8BC701B801AE0168
:1003D000475E5F4F0E9475000E947105A096E6E09F
:1003E0000C94D018A0E2B0E0E8EFF1E00C94B4185F
:1003F00069837A838B839C832D833E834F835887C5
:10040000F9E0EF2EF12CEC0EFD1ECE010196B701A6
:100410000E9446068E010F5E1F4FCE010596B80161
:100420000E944606C701B801AE01475E5F4F0E94B9
:1004300075000E947105A096E6E00C94D018A0E229
:10044000B0E0E5E2F2E00C94A81869837A838B832C
:100450009C832D833E834F835887CE010196BE0136
:10046000675F7F4F0E944606CE010596BE016F5E14
:100470007F4F0E9446069985923088F089898230A4
:10048000C8F0943019F4823051F404C0843029F457
:10049000923081F480E690E0C6C0923049F420E0CA
:1004A0009A858A89981321E02A87CE010996BBC0D4
:1004B000823049F420E09A858A89981321E02A8BBA
:1004C000CE014196B0C02D843E844F8458886D88FB
:1004D0007E888F88988CEE24FF248701AA24BB2471
:1004E000650140E050E060E070E0E0E0F0E0C10174
:1004F00081709070892BE9F0E60CF71C081D191D1E
:100500009A01AB012A0D3B1D4C1D5D1D80E090E062
:10051000A0E0B0E0E614F7040805190520F481E036
:1005200090E0A0E0B0E0BA01A901480F591F6A1F8E
:100530007B1FAA0CBB1CCC1CDD1C97FE08C081E0F5
:1005400090E0A0E0B0E0A82AB92ACA2ADB2A3196B6
:10055000E032F10549F0660C771C881C991C569412
:10056000479437942794C3CFFA85EA892B893C892D
:100570008B859C85280F391F2E5F3F4F17C0CA01FE
:1005800081709070892B61F016950795F794E79428
:1005900080E090E0A0E0B0E8E82AF92A0A2B1B2BC3
:1005A00076956795579547952F5F3F4F77FDE7CF36
:1005B0000CC0440F551F661F771F17FD4160EE0CDE
:1005C000FF1C001F111F21503040403090E05907A0
:1005D00090E0690790E4790760F32B8F3C8FDB0193
:1005E000CA018F779070A070B07080349105A1051A
:1005F000B10561F447FD0AC0E114F10401051105DC
:1006000029F0405C5F4F6F4F7F4F40781A8EFE1786
:1006100011F081E08A8F4D8F5E8F6F8F78A383E01A
:10062000898FCE0149960E947105A096E2E10C9453
:10063000C418A8E1B0E0EFE1F3E00C94B0186983CE
:100640007A838B839C832D833E834F835887B9E0C5
:10065000EB2EF12CEC0EFD1ECE010196B7010E948F
:1006600046068E010F5E1F4FCE010596B8010E940F
:1006700046062985223008F47EC03989323010F4CC
:10068000B8017CC08A859A8989278A87243011F02D
:10069000223031F4231709F06EC060E670E06EC0BE
:1006A000343039F41D861E861F86188A1C861B86E8
:1006B00004C0323021F484E08987B7015FC02B8504
:1006C0003C858B899C89281B390B3C872B87ED84C3
:1006D000FE840F851889AD88BE88CF88D88CEA142F
:1006E000FB040C051D0540F4EE0CFF1C001F111F40
:1006F000215030403C872B8720E030E040E050E044
:1007000080E090E0A0E0B0E460E070E0EA14FB0478
:100710000C051D0540F0282B392B4A2B5B2BEA18C2
:10072000FB080C091D09B695A79597958795EE0CC2
:10073000FF1C001F111F6F5F7F4F6F31710531F775
:10074000DA01C9018F779070A070B0708034910584
:10075000A105B10561F427FD0AC0E114F10401050A
:10076000110529F0205C3F4F4F4F5F4F20782D87B8
:100770003E874F87588BBE01675F7F4FCB010E943A
:1007800071056896EAE00C94CC18A8E1B0E0EBECB7
:10079000F3E00C94B41869837A838B839C832D8354
:1007A0003E834F83588789E0E82EF12CEC0EFD1E26
:1007B000CE010196B7010E9446068E010F5E1F4FC3
:1007C000CE010596B8010E9446068985823040F028
:1007D0008989823028F0C701B8010E94BE0601C095
:1007E00081E06896E6E00C94D018A8E1B0E0EBEF69
:1007F000F3E00C94B41869837A838B839C832D83F4
:100800003E834F83588789E0E82EF12CEC0EFD1EC5
:10081000CE010196B7010E9446068E010F5E1F4F62
:10082000CE010596B8010E9446068985823040F0C7
:100830008989823028F0C701B8010E94BE0601C034
:100840008FEF6896E6E00C94D018A8E1B0E0EBE2F8
:10085000F4E00C94B41869837A838B839C832D8392
:100860003E834F83588789E0E82EF12CEC0EFD1E65
:10087000CE010196B7010E9446068E010F5E1F4F02
:10088000CE010596B8010E9446068985823040F067
:100890008989823028F0C701B8010E94BE0601C0D4
:1008A00081E06896E6E00C94D018ACE0B0E0EBE5AF
:1008B000F4E00C94B81869837A838B839C83CE010F
:1008C0000196BE016B5F7F4F0E9446068D8182308C
:1008D00061F1823050F1843021F48E81882351F10E
:1008E0002EC02F81388537FD20C06E812F31310514
:1008F0001CF06623F9F023C08EE190E0821B930B7D
:1009000029853A854B855C8504C056954795379572
:1009100027958A95D2F76623B1F05095409530958A
:1009200021953F4F4F4F5F4F0EC020E030E040E039
:1009300050E009C02FEF3FEF4FEF5FE704C020E02A
:1009400030E040E050E8B901CA012C96E2E00C9496
:10095000D418A8E0B0E0EFEAF4E00C94B0187B0102
:100960008C01611571058105910519F482E0898377
:1009700060C083E089838EE1C82ED12CDC82CB82DB
:10098000ED82FE820F831887C801B7010E942205FD
:10099000FC013197F7FF3BC0222733272E1B3F0B6B
:1009A00057016801022E04C0D694C794B794A79447
:1009B0000A94D2F740E050E060E070E081E090E01F
:1009C000A0E0B0E004C0880F991FAA1FBB1F2A95A2
:1009D000D2F70197A109B1098E219F21A023B1234C
:1009E0000097A105B10521F041E050E060E070E022
:1009F0004A295B296C297D294D835E836F83788723
:100A00008EE190E08E1B9F0B9C838B8312C03097EE
:100A100081F00E2E04C0EE0CFF1C001F111F0A9463
:100A2000D2F7ED82FE820F831887CE1ADF0ADC82AE
:100A3000CB821A82CE0101960E9471052896EAE0C7
:100A40000C94CC18EF92FF920F931F937B018C01B3
:100A500080E0E81680E0F80681E0080780E01807EB
:100A600088F48FEFE816F1040105110531F028F044
:100A700088E090E0A0E0B0E017C080E090E0A0E067
:100A8000B0E012C080E0E81680E0F80680E00807D9
:100A900081E0180728F088E190E0A0E0B0E004C011
:100AA00080E190E0A0E0B0E020E230E040E050E003
:100AB000281B390B4A0B5B0B04C016950795F7945E
:100AC000E7948A95D2F7F701E859FF4F8081281BF8
:100AD000310941095109C9011F910F91FF90EF9010
:100AE0000895DF92EF92FF920F931F93FC01E48031
:100AF000F58006811781D1808081823048F480E0C2
:100B000090E0A0E1B0E0E82AF92A0A2B1B2BA5C04F
:100B1000843009F49FC0823021F4EE24FF24870141
:100B200005C0E114F1040105110519F4E0E0F0E05D
:100B300096C0628173819FEF623879070CF05BC0C9
:100B400022E83FEF261B370B2A3131052CF020E03D
:100B500030E040E050E02AC0B801A701022E04C0F6
:100B600076956795579547950A94D2F781E090E07E
:100B7000A0E0B0E004C0880F991FAA1FBB1F2A95F0
:100B8000D2F70197A109B1098E219F21A023B1239A
:100B90000097A105B10521F081E090E0A0E0B0E070
:100BA0009A01AB01282B392B4A2B5B2BDA01C901A7
:100BB0008F779070A070B07080349105A105B10559
:100BC00039F427FF09C0205C3F4F4F4F5F4F04C0EF
:100BD000215C3F4F4F4F5F4FE0E0F0E02030A0E05E
:100BE0003A07A0E04A07A0E45A0710F0E1E0F0E07D
:100BF00079018A0127C06038710564F5FB01E1586D
:100C0000FF4FD801C7018F779070A070B07080340B
:100C10009105A105B10539F4E7FE0DC080E490E02F
:100C2000A0E0B0E004C08FE390E0A0E0B0E0E80E08
:100C3000F91E0A1F1B1F17FF05C016950795F7948D
:100C4000E794319687E016950795F794E7948A958F
:100C5000D1F705C0EE24FF248701EFEFF0E06E2FFF
:100C6000679566276795902F9F77D794DD24D79453
:100C70008E2F8695492F462B582F5D29B701CA0123
:100C80001F910F91FF90EF90DF900895FC01DB0121
:100C9000408151812281622F6F7770E0221F2227CD
:100CA000221F9381892F880F822B282F30E0991FD4
:100CB0009927991F11969C93119721153105A9F534
:100CC000411551056105710511F482E037C082E8D4
:100CD0009FEF13969C938E9312979A01AB0167E056
:100CE000220F331F441F551F6A95D1F783E08C9361
:100CF0000DC0220F331F441F551F12968D919C91DA
:100D00001397019713969C938E931297203080E04F
:100D1000380780E0480780E4580758F314962D936D
:100D20003D934D935C93179708952F3F310579F4C8
:100D3000411551056105710519F484E08C930895FE
:100D400064FF03C081E08C9312C01C9210C02F5727
:100D5000304013963C932E93129783E08C9387E058
:100D6000440F551F661F771F8A95D1F7706414963C
:100D70004D935D936D937C93179708951F93DC01BA
:100D8000FB019C91923008F447C08081823008F4C6
:100D900043C0943051F411961C91843099F58181AF
:100DA000682F70E0611B71093FC0843021F09230E0
:100DB00031F48230B9F18181882389F12DC01196F7
:100DC0001C9111978230F1F081811817D9F4129695
:100DD0002D913C911397828193818217930794F010
:100DE00028173907BCF014968D919D910D90BC91F8
:100DF000A02D2481358146815781281739074A075C
:100E00005B0718F4112341F00AC082179307A40767
:100E1000B50740F4112319F061E070E005C06FEFF1
:100E20007FEF02C060E070E0CB011F910895AF92A8
:100E3000BF92CF92DF92EF92FF920F931F93DF93B7
:100E4000CF93CDB7DEB766970FB6F894DEBF0FBE6F
:100E5000CDBF8F87688B5A8B498B3C8B2B8B1E8B1E
:100E60000D8B19861A861B861C868F85882319F0A0
:100E70008F85823049F480E091E0A0E0B0E089877E
:100E80009A87AB87BC8708C080E090E0A1E0B0E023
:100E900089879A87AB87BC878F85482F50E08889E0
:100EA000282F30E0CA01880F991F880F991F880FDB
:100EB000991F820F931F880F991FFC01E859FE4F5D
:100EC000808191819E878D878D859E85CC01A0E054
:100ED000B0E0BC01CD010E94A904DC01CB01BC0142
:100EE000CD0120E034E244E759E40E941903DC011B
:100EF000CB01BC01CD0120E030E04AE754E40E9480
:100F00001F02DC01CB018D839E83AF83B887698587
:100F10007A858B859C850E94A904DC01CB01BC01EC
:100F2000CD012D813E814F8158850E941F02DC0139
:100F3000CB0189839A83AB83BC8389899A89CC014D
:100F4000A0E0B0E0BC01CD010E94A904DC01CB010E
:100F5000BC01CD0129813A814B815C810E94C5038E
:100F6000882339F4EB89FC8989899A899183808364
:100F7000A6C089899A89CC01A0E0B0E0BC01CD016E
:100F80000E94A904DC01CB01BC01CD0129813A8179
:100F90004B815C810E942504882344F589899A89C4
:100FA000CC01A0E0B0E0BC01CD010E94A9049B01EE
:100FB000AC0169817A818B819C810E94C101DC0135
:100FC000CB01BC01CD012D813E814F8158850E940E
:100FD0001903DC01CB01BC01CD010E944900DC01F9
:100FE000CB01EB89FC899183808369C089899A89C7
:100FF000CC01A0E0B0E0BC01CD010E94A904DC015D
:10100000CB01BC01CD0129813A814B815C810E94D9
:101010001903DC01CB01BC01CD010E94DF18DC010A
:10102000CB01BC01CD010E944900DC01CB01ED895F
:10103000FE899183808369857A858B859C850E9452
:10104000A9045B016C0189899A89CC01A0E0B0E018
:10105000BC01CD010E94A904DC01CB01BC01CD0182
:101060002D813E814F8158850E941903DC01CB01FF
:101070007C018D01ED89FE8980819181CC01A0E008
:10108000B0E0BC01CD010E94A9049B01AC01C801E4
:10109000B7010E941903DC01CB019C01AD01C6011F
:1010A000B5010E94C101DC01CB01BC01CD010E9450
:1010B0004900DC01CB01EB89FC899183808381E0CD
:1010C00066960FB6F894DEBF0FBECDBFCF91DF910D
:1010D0001F910F91FF90EF90DF90CF90BF90AF9056
:1010E0000895DF93CF93CDB7DEB728970FB6F89466
:1010F000DEBF0FBECDBF89836A834B838091AA0177
:10110000813011F41886F1C0A7E3B0E0E7E3F0E026
:10111000808188608C938981282F30E03F832E83E3
:101120008E819F818130910569F12E813F8122302E
:1011300031052CF48E819F81009769F06BC02E8160
:101140003F8122303105B1F18E819F81833091053D
:1011500009F448C05FC0A3E5B0E0E3E5F0E08081BA
:101160008F7B8C93A3E5B0E0E3E5F0E08081877F9F
:101170008C93A9E5B0E0E9E5F0E090818B81892BC3
:101180008C934AC0A3E5B0E0E3E5F0E080818F7B7B
:101190008C93A3E5B0E0E3E5F0E0808188608C9378
:1011A000A9E5B0E0E9E5F0E090818B81880F892B1B
:1011B0008C9332C0A3E5B0E0E3E5F0E08081806489
:1011C0008C93A3E5B0E0E3E5F0E0808188608C9348
:1011D000A9E5B0E0E9E5F0E090818B81880F892BEB
:1011E0008C931AC0A3E5B0E0E3E5F0E08081806471
:1011F0008C93A3E5B0E0E3E5F0E08081877F8C93FA
:10120000A9E5B0E0E9E5F0E090818B81880F892BBA
:101210008C9302C0188669C08A81282F30E03D83F4
:101220002C838C819D8185309105A1F12C813D819C
:101230002630310584F48C819D818230910551F1F5
:101240002C813D8123303105A1F18C819D8181303C
:10125000910589F03DC02C813D8128303105D1F0C8
:101260008C819D818930910521F12C813D81263031
:101270003105F9F02DC0A3E5B0E0E3E5F0E08081B1
:1012800080618C93A3E5B0E0E3E5F0E080818F7DA1
:101290008C9320C0A3E5B0E0E3E5F0E080818F7E91
:1012A0008C93A3E5B0E0E3E5F0E0808180628C936D
:1012B00011C0A3E5B0E0E3E5F0E0808180618C93AC
:1012C000A3E5B0E0E3E5F0E0808180628C9302C0AA
:1012D00018860BC081E08093AA018A818093AC01BB
:1012E00089818093AB0131E03887888528960FB6D5
:1012F000F894DEBF0FBECDBFCF91DF910895DF938D
:10130000CF9300D000D000D0CDB7DEB789837B83E8
:101310006A838981883020F48091AA01882311F49E
:101320001E822CC08091AB01282F30E03D832C839E
:101330008C819D81009751F02C813D81332384F075
:101340008C819D81843091055CF405C0E2E5F0E07C
:101350008A81808307C0ECE5F0E08A81808302C047
:101360001E820CC0A3E5B0E0E3E5F0E08081982F99
:1013700089818770892B8C9391E09E838E8126963C
:101380000FB6F894DEBF0FBECDBFCF91DF910895A9
:101390000F931F93DF93CF93CDB7DEB728970FB688
:1013A000F894DEBF0FBECDBF9E838D836F838F8188
:1013B000883010F0188646C080E060E040E00E946F
:1013C00071081A8219821C821B822D813E81FE01C6
:1013D000339680E06F81A9019E012F5F3F4F8F01FF
:1013E0000E941707E2E5F0E089819A818083A3E5F6
:1013F000B0E0E3E5F0E08081982F8F818770892B42
:101400008C93E8E5F0E08081882F90E08170907007
:101410000097B9F3A8E5B0E0E8E5F0E080818160ED
:101420008C938B819C81009749F08B819C810197E3
:101430009C838B838B819C810097A1F60E942E0A4E
:1014400081E08887888528960FB6F894DEBF0FBEA6
:10145000CDBFCF91DF911F910F910895DF93CF936F
:10146000CDB7DEB7E3E5F0E01082E2E5F0E0108210
:10147000ECE5F0E010821092AA0181E0CF91DF91BB
:101480000895DF93CF93CDB7DEB728970FB6F894C2
:10149000DEBF0FBECDBF89836A834B838091B001CD
:1014A000813011F41886FBC0A7E3B0E0E7E3F0E079
:1014B000808180688C938981282F30E03F832E8340
:1014C0008E819F818130910589F12E813F8122306B
:1014D00031052CF48E819F81009769F075C02E81B3
:1014E0003F8122303105E1F18E819F81833091056A
:1014F00009F450C069C0A5E4B0E0E5E4F0E0808103
:101500008F7B8C93A5E4B0E0E5E4F0E08081877FF9
:101510008C93A9E5B0E0E9E5F0E090818B818295BC
:10152000880F880F807C892B8C9350C0A5E4B0E095
:10153000E5E4F0E080818F7B8C93A5E4B0E0E5E406
:10154000F0E0808188608C93A9E5B0E0E9E5F0E007
:1015500090818B81879588278795892B8C9336C0BE
:10156000A5E4B0E0E5E4F0E0808180648C93A5E43C
:10157000B0E0E5E4F0E0808188608C93A9E5B0E01C
:10158000E9E5F0E090818B81879588278795892B05
:101590008C931CC0A5E4B0E0E5E4F0E080818064B9
:1015A0008C93A5E4B0E0E5E4F0E08081877F8C9344
:1015B000A9E5B0E0E9E5F0E090818B818795882787
:1015C0008795892B8C9302C0188669C08A81282F41
:1015D00030E03D832C838C819D8185309105A1F184
:1015E0002C813D812630310584F48C819D818230AF
:1015F000910551F12C813D8123303105A1F18C8180
:101600009D818130910589F03DC02C813D8128303C
:101610003105D1F08C819D818930910521F12C819A
:101620003D8126303105F9F02DC0A5E4B0E0E5E4B8
:10163000F0E0808180618C93A5E4B0E0E5E4F0E027
:1016400080818F7D8C9320C0A5E4B0E0E5E4F0E0DC
:1016500080818F7E8C93A5E4B0E0E5E4F0E08081AA
:1016600080628C9311C0A5E4B0E0E5E4F0E08081F5
:1016700080618C93A5E4B0E0E5E4F0E080818062D5
:101680008C9302C018860BC081E08093B0018A81E0
:101690008093B20189818093B10131E038878885D8
:1016A00028960FB6F894DEBF0FBECDBFCF91DF9165
:1016B00008950F931F93DF93CF93CDB7DEB728978D
:1016C0000FB6F894DEBF0FBECDBF9E838D836F83B0
:1016D0008F81883010F0188646C080E060E040E0DE
:1016E0000E94410A1A8219821C821B822D813E812E
:1016F000FE01339682E06F81A9019E012F5F3F4F6B
:101700008F010E941707E4E4F0E089819A818083C9
:10171000A5E4B0E0E5E4F0E08081982F8F81877048
:10172000892B8C93E8E5F0E08081882F90E080742D
:1017300090700097B9F3A8E5B0E0E8E5F0E08081AB
:1017400080648C938B819C81009749F08B819C8174
:1017500001979C838B838B819C810097A1F60E94CB
:10176000080C81E08887888528960FB6F894DEBF3C
:101770000FBECDBFCF91DF911F910F910895DF93E1
:10178000CF9300D000D000D0CDB7DEB789837B8364
:101790006A838981883020F48091B001882311F414
:1017A0001E822CC08091B101282F30E03D832C8314
:1017B0008C819D81009751F02C813D81332384F0F1
:1017C0008C819D81843091055CF405C0E4E4F0E0F7
:1017D0008A81808307C0E3E4F0E08A81808302C0CD
:1017E0001E820CC0A5E4B0E0E5E4F0E08081982F13
:1017F00089818770892B8C9391E09E838E812696B8
:101800000FB6F894DEBF0FBECDBFCF91DF91089524
:10181000DF93CF93CDB7DEB7E5E4F0E01082E4E4E8
:10182000F0E010821092B00181E0CF91DF91089535
:10183000DF93CF93CDB7DEB728970FB6F894DEBF0E
:101840000FBECDBF89836A834B838091AD01813008
:1018500011F4188678C1A1E3B0E0E1E3F0E0808103
:1018600080628C938981282F30E03F832E838E8184
:101870009F818130910509F43EC02E813F81223045
:1018800031052CF48E819F81009771F0A9C02E81C3
:101890003F812230310509F455C08E819F8183300C
:1018A000910509F476C09CC0AFE4B0E0EFE4F0E04D
:1018B00080818E7F8C93AFE4B0E0EFE4F0E0808134
:1018C0008D7F8C93AEE4B0E0EEE4F0E08081877F22
:1018D0008C93AEE4B0E0EEE4F0E080818F7E8C93F8
:1018E000A9E5B0E0E9E5F0E090818B81880F880FF1
:1018F000892B8C9377C0AFE4B0E0EFE4F0E0808117
:101900008E7F8C93AFE4B0E0EFE4F0E080818D7FD8
:101910008C93AEE4B0E0EEE4F0E0808188608C93DC
:10192000AEE4B0E0EEE4F0E080818F7E8C93A9E538
:10193000B0E0E9E5F0E090818B818295807F892B92
:101940008C9350C0AFE4B0E0EFE4F0E080818160C0
:101950008C93AFE4B0E0EFE4F0E0808182608C93A0
:10196000AEE4B0E0EEE4F0E0808188608C93AEE419
:10197000B0E0EEE4F0E0808180618C93A9E5B0E016
:10198000E9E5F0E090818B818295807F892B8C93B3
:1019900029C0AFE4B0E0EFE4F0E0808181608C9397
:1019A000AFE4B0E0EFE4F0E0808182608C93AEE4DD
:1019B000B0E0EEE4F0E08081877F8C93AEE4B0E0AD
:1019C000EEE4F0E0808180618C93A9E5B0E0E9E588
:1019D000F0E090818B818295807F892B8C9302C06F
:1019E0001886B1C08A81282F30E03D832C838C81FA
:1019F0009D818430910509F454C02C813D812530AE
:101A00003105ECF48C819D818130910509F449C048
:101A10002C813D81223031052CF48C819D810097F1
:101A200089F184C02C813D812230310509F460C0E8
:101A30008C819D818330910509F469C077C02C8128
:101A40003D812730310569F18C819D818830910578
:101A50006CF42C813D812530310509F449C08C811D
:101A60009D818630910509F452C060C02C813D8172
:101A700028303105E9F18C819D818930910509F487
:101A800046C054C0AFE4B0E0EFE4F0E080818F7B6B
:101A90008C93AFE4B0E0EFE4F0E080818F778C933B
:101AA00047C08981823031F08981833019F0898182
:101AB000882379F4AFE4B0E0EFE4F0E08081806463
:101AC0008C93AFE4B0E0EFE4F0E080818F778C930B
:101AD0002FC0AFE4B0E0EFE4F0E080818F7B8C9327
:101AE000AFE4B0E0EFE4F0E080818F778C9320C02A
:101AF000AFE4B0E0EFE4F0E0808180648C93AFE489
:101B0000B0E0EFE4F0E080818F778C9311C0AFE418
:101B1000B0E0EFE4F0E0808180648C93AFE4B0E06B
:101B2000EFE4F0E0808180688C9302C018860BC0DF
:101B300081E08093AD018A818093AF018981809398
:101B4000AE0191E09887888528960FB6F894DEBF9D
:101B50000FBECDBFCF91DF9108950F931F93DF93F9
:101B6000CF93CDB7DEB728970FB6F894DEBF0FBE80
:101B7000CDBF9E838D836F838F81863010F0188652
:101B80004DC080E060E040E00E94180C1A8219828B
:101B90001C821B822D813E81FE01339681E06F8184
:101BA000A9019E012F5F3F4F8F010E941707EDE4AF
:101BB000F0E089819A81892F99278083ECE4F0E015
:101BC00089819A818083AEE4B0E0EEE4F0E0808128
:101BD000982F8F818770892B8C93E8E5F0E08081C6
:101BE000882F90E0847090700097B9F3A8E5B0E07A
:101BF000E8E5F0E0808184608C938B819C81009784
:101C000049F08B819C8101979C838B838B819C8184
:101C1000009769F60E94710E81E088878885289672
:101C20000FB6F894DEBF0FBECDBFCF91DF911F91ED
:101C30000F910895DF93CF9300D000D000D0CDB79F
:101C4000DEB789837B836A838981883020F4809121
:101C5000AD01882311F41E823AC08091AE01282F75
:101C600030E03D832C838C819D81009751F02C8145
:101C70003D813323F4F08C819D8184309105CCF437
:101C80000CC0EDE4F0E08A819B81892F9927808345
:101C9000ECE4F0E08A8180830EC0EBE4F0E08A811E
:101CA0009B81892F99278083EAE4F0E08A818083F1
:101CB00002C01E820CC0AEE4B0E0EEE4F0E0808131
:101CC000982F89818770892B8C9391E09E838E81D8
:101CD00026960FB6F894DEBF0FBECDBFCF91DF9131
:101CE0000895DF93CF93CDB7DEB7EFE4F0E0108235
:101CF000EDE4F0E01082ECE4F0E010821092AD012F
:101D000081E0CF91DF910895DF93CF93CDB7DEB718
:101D10007894CF91DF910895DF93CF93CDB7DEB75D
:101D2000F894CF91DF910895DF93CF930F92CDB7C1
:101D3000DEB78983A1E3B0E0E1E3F0E080818B7F4F
:101D40008C93ABE5B0E0EBE5F0E0808180648C93B0
:101D5000A5E5B0E0E5E5F0E090818981892B8C93E1
:101D600081E00F90CF91DF910895DF93CF930F9291
:101D7000CDB7DEB78983A1E3B0E0E1E3F0E0808195
:101D8000877F8C93ABE5B0E0EBE5F0E08081806885
:101D90008C93A5E5B0E0E5E5F0E08081282F89810E
:101DA000882F90E0880F991F880F991F822B8C93A2
:101DB00081E00F90CF91DF910895DF93CF930F9241
:101DC000CDB7DEB78983A1E3B0E0E1E3F0E0808145
:101DD000877F8C93ABE5B0E0EBE5F0E08081806835
:101DE0008C93A5E5B0E0E5E5F0E08081282F8981BE
:101DF000882F90E00024969587950794969587956F
:101E00000794982F802D822B8C9381E00F90CF9197
:101E1000DF910895DF93CF93CDB7DEB7ABE5B0E0A8
:101E2000EBE5F0E080818F7B8C9381E0CF91DF91B7
:101E30000895DF93CF93CDB7DEB7ABE5B0E0EBE528
:101E4000F0E080818F778C9381E0CF91DF910895CE
:101E5000DF93CF93CDB7DEB7ABE5B0E0EBE5F0E0D5
:101E600080818F7D8C9381E0CF91DF910895DF9306
:101E7000CF9300D000D000D0CDB7DEB789836A837E
:101E80004B838A81883018F48981843010F01E8257
:101E9000D6C08981282F30E03D832C838C819D81A1
:101EA0008130910509F443C02C813D8122303105F8
:101EB0002CF48C819D81009771F0BDC02C813D81F7
:101EC0002230310509F45FC08C819D8183309105FA
:101ED00009F485C0B0C08B818130A1F4AAE3B0E0E1
:101EE000EAE3F0E08081482F8A81282F30E081E00A
:101EF00090E0022E02C0880F991F0A94E2F7842B0B
:101F00008C939BC0AAE3B0E0EAE3F0E08081482F25
:101F10008A81282F30E081E090E0022E02C0880FF5
:101F2000991F0A94E2F7809584238C9386C08B8155
:101F30008130A1F4A7E3B0E0E7E3F0E08081482F2F
:101F40008A81282F30E081E090E0022E02C0880FC5
:101F5000991F0A94E2F7842B8C936FC0A7E3B0E03B
:101F6000E7E3F0E08081482F8A81282F30E081E08C
:101F700090E0022E02C0880F991F0A94E2F7809524
:101F800084238C935AC08B818130A1F4A4E3B0E008
:101F9000E4E3F0E08081482F8A81282F30E081E05F
:101FA00090E0022E02C0880F991F0A94E2F7842B5A
:101FB0008C9343C0A4E3B0E0E4E3F0E08081482FD9
:101FC0008A81282F30E081E090E0022E02C0880F45
:101FD000991F0A94E2F7809584238C932EC08B81FD
:101FE0008130A1F4A1E3B0E0E1E3F0E08081482F8B
:101FF0008A81282F30E081E090E0022E02C0880F15
:10200000991F0A94E2F7842B8C9317C0A1E3B0E0E8
:10201000E1E3F0E08081482F8A81282F30E081E0E1
:1020200090E0022E02C0880F991F0A94E2F7809573
:1020300084238C9302C01E8202C091E09E838E8115
:1020400026960FB6F894DEBF0FBECDBFCF91DF91BD
:102050000895DF93CF9300D000D000D0CDB7DEB786
:1020600089836A834B838A81883018F4898184301C
:1020700010F01E82D6C08981282F30E03D832C834A
:102080008C819D818130910509F443C02C813D8173
:10209000223031052CF48C819D81009771F0BDC0F8
:1020A0002C813D812230310509F45FC08C819D81F6
:1020B0008330910509F485C0B0C08B818130A1F4D3
:1020C000ABE3B0E0EBE3F0E08081482F8A81282F7A
:1020D00030E081E090E0022E02C0880F991F0A9440
:1020E000E2F7842B8C939BC0ABE3B0E0EBE3F0E032
:1020F0008081482F8A81282F30E081E090E0022EF5
:1021000002C0880F991F0A94E2F7809584238C936C
:1021100086C08B818130A1F4A8E3B0E0E8E3F0E071
:102120008081482F8A81282F30E081E090E0022EC4
:1021300002C0880F991F0A94E2F7842B8C936FC01A
:10214000A8E3B0E0E8E3F0E08081482F8A81282FFF
:1021500030E081E090E0022E02C0880F991F0A94BF
:10216000E2F7809584238C935AC08B818130A1F44F
:10217000A5E3B0E0E5E3F0E08081482F8A81282FD5
:1021800030E081E090E0022E02C0880F991F0A948F
:10219000E2F7842B8C9343C0A5E3B0E0E5E3F0E0E5
:1021A0008081482F8A81282F30E081E090E0022E44
:1021B00002C0880F991F0A94E2F7809584238C93BC
:1021C0002EC08B818130A1F4A2E3B0E0E2E3F0E025
:1021D0008081482F8A81282F30E081E090E0022E14
:1021E00002C0880F991F0A94E2F7842B8C9317C0C2
:1021F000A2E3B0E0E2E3F0E08081482F8A81282F5B
:1022000030E081E090E0022E02C0880F991F0A940E
:10221000E2F7809584238C9302C01E8202C091E075
:102220009E838E8126960FB6F894DEBF0FBECDBF7B
:10223000CF91DF910895DF93CF9300D000D000D0ED
:10224000CDB7DEB78A836B8319828B81883018F40F
:102250008A81843010F01E8285C08A81282F30E068
:102260003D832C834C815D814130510579F18C8116
:102270009D818230910534F42C813D8121153105F9
:1022800069F06CC04C815D8142305105B9F18C819F
:102290009D818330910509F449C060C0E9E3F0E015
:1022A0008081282F30E08B81882F90E0A90102C027
:1022B000559547958A95E2F7CA01817090708823F9
:1022C00019F081E089834CC019824AC0E6E3F0E04E
:1022D0008081282F30E08B81882F90E0A90102C0F7
:1022E000559547958A95E2F7CA01817090708823C9
:1022F00019F081E0898334C0198232C0E3E3F0E051
:102300008081282F30E08B81882F90E0A90102C0C6
:10231000559547958A95E2F7CA0181709070882398
:1023200019F081E089831CC019821AC0E0E3F0E053
:102330008081282F30E08B81882F90E0A90102C096
:10234000559547958A95E2F7CA0181709070882368
:1023500019F081E0898304C0198202C01E8202C084
:1023600059815E838E8126960FB6F894DEBF0FBE2C
:10237000CDBFCF91DF910895DF93CF9300D000D0F0
:102380000F92CDB7DEB789836A838A81883018F4CB
:102390008981843010F01D8273C08981282F30E03C
:1023A0003C832B838B819C818130910549F12B816A
:1023B0003C81223031052CF48B819C81009761F0A7
:1023C0005BC02B813C812230310571F18B819C8176
:1023D00083309105E9F150C0ABE3B0E0EBE3F0E00E
:1023E0008081482F8A81282F30E081E090E0022E02
:1023F00002C0880F991F0A94E2F784278C933EC08D
:10240000A8E3B0E0E8E3F0E08081482F8A81282F3C
:1024100030E081E090E0022E02C0880F991F0A94FC
:10242000E2F784278C932AC0A5E3B0E0E5E3F0E06F
:102430008081482F8A81282F30E081E090E0022EB1
:1024400002C0880F991F0A94E2F784278C9316C064
:10245000A2E3B0E0E2E3F0E08081482F8A81282FF8
:1024600030E081E090E0022E02C0880F991F0A94AC
:10247000E2F784278C9302C01D8202C091E09D8305
:102480008D810F900F900F900F900F90CF91DF9153
:102490000895DF93CF9300D000D00F92CDB7DEB771
:1024A00089836A838981843010F01D8237C08981D5
:1024B000282F30E03C832B838B819C8181309105D8
:1024C000D1F02B813C81223031052CF48B819C8111
:1024D000009761F01FC02B813C812230310581F0D3
:1024E0008B819C818330910581F014C0EAE3F0E098
:1024F0008A81808311C0E7E3F0E08A8180830CC089
:10250000E4E3F0E08A81808307C0E1E3F0E08A81C0
:10251000808302C01D8202C091E09D838D810F9057
:102520000F900F900F900F90CF91DF910895DF9350
:10253000CF9300D000D00F92CDB7DEB789836A83E6
:102540008981843010F01D8237C08981282F30E0C6
:102550003C832B838B819C8181309105D1F02B8131
:102560003C81223031052CF48B819C81009761F0F5
:102570001FC02B813C812230310581F08B819C81F1
:102580008330910581F014C0EBE3F0E08A81808311
:1025900011C0E8E3F0E08A8180830CC0E5E3F0E05D
:1025A0008A81808307C0E2E3F0E08A81808302C0F1
:1025B0001D8202C091E09D838D810F900F900F903E
:1025C0000F900F90CF91DF910895DF93CF9300D0BC
:1025D00000D00F92CDB7DEB78A8319828A8184300A
:1025E00010F01D8237C08A81282F30E03C832B8376
:1025F0008B819C8181309105D1F02B813C812230EF
:1026000031052CF48B819C81009761F01FC02B81D8
:102610003C812230310581F08B819C818330910592
:1026200081F014C0E9E3F0E08081898311C0E6E322
:10263000F0E0808189830CC0E3E3F0E0808189834E
:1026400007C0E0E3F0E08081898302C01D8202C000
:1026500099819D838D810F900F900F900F900F9017
:10266000CF91DF910895DF93CF9300D000D0CDB705
:10267000DEB789838981843010F01C8243C0898150
:10268000282F30E03B832A838A819B81813091050A
:10269000E9F02A813B81223031052CF48A819B812B
:1026A000009761F02BC02A813B8122303105B1F0C7
:1026B0008A819B8183309105C9F020C0ABE3B0E0F3
:1026C000EBE3F0E0808180958C931AC0A8E3B0E042
:1026D000E8E3F0E0808180958C9312C0A5E3B0E040
:1026E000E5E3F0E0808180958C930AC0A2E3B0E03E
:1026F000E2E3F0E0808180958C9302C01C8202C0EE
:1027000091E09C838C810F900F900F900F90CF9150
:10271000DF910895DF93CF9300D00F92CDB7DEB74E
:102720009A83898389819A81009711F41B820BC057
:10273000E981FA818081E981FA819181692F41E003
:102740000E94370F8B838B810F900F900F90CF914A
:10275000DF910895DF93CF9300D00F92CDB7DEB70E
:102760009A83898389819A81009711F41B820BC017
:10277000E981FA818081E981FA819181692F41E0C3
:102780000E9429108B838B810F900F900F90CF9117
:10279000DF910895DF93CF9300D00F92CDB7DEB7CE
:1027A0009A83898389819A81009711F41B820BC0D7
:1027B000E981FA818081E981FA819181692F40E084
:1027C0000E9429108B838B810F900F900F90CF91D7
:1027D000DF910895DF93CF9300D00F92CDB7DEB78E
:1027E0009A83898389819A81009711F41B820AC098
:1027F000E981FA818081E981FA819181692F0E94C2
:10280000BC118B838B810F900F900F90CF91DF9134
:102810000895DF93CF9300D00F92CDB7DEB79A83A0
:10282000898389819A81009711F41B820BC0E98109
:10283000FA818081E981FA819181692F41E00E94CA
:10284000370F8B838B810F900F900F90CF91DF917B
:102850000895DF93CF9300D00F92CDB7DEB79A8360
:10286000898389819A81009711F41B820BC0E981C9
:10287000FA818081E981FA819181692F40E00E948B
:10288000370F8B838B810F900F900F90CF91DF913B
:102890000895DF93CF9300D00F92CDB7DEB79A8320
:1028A000898389819A81009711F41B8225C0E9816F
:1028B000FA818081E981FA819181692F0E941B113F
:1028C000813029F4E981FA818281813081F0E981C6
:1028D000FA818081E981FA819181692F0E941B111F
:1028E000882341F4E981FA818281882319F483E005
:1028F0008B8302C084E08B838B810F900F900F90AD
:10290000CF91DF910895DF93CF93CDB7DEB783EBFF
:1029100091E00E948A1388E991E00E948A138AE973
:1029200091E00E948A138CE991E00E948A138EE95B
:1029300091E00E948A1380EA91E00E948A1382EA61
:1029400091E00E94091480E060E040E00E94180CD1
:102950000E94840E83E00E94940ECF91DF9108952F
:10296000DF93CF93CDB7DEB727970FB6F894DEBFCE
:102970000FBECDBF9C838B837E836D834F8381E0AD
:1029800060E040E00E94180C1A82198222C08B81FC
:102990009C810E94EA138D819E810E94EA1382E04D
:1029A00064E274EF0E941A0EE8E5F0E08081882F5F
:1029B00090E0807190700097B9F3A8E5B0E0E8E589
:1029C000F0E0808180618C9389819A8101969A835D
:1029D00089838F81882F90E09C01220F331F89818A
:1029E0009A81821793079CF20E94710E27960FB668
:1029F000F894DEBF0FBECDBFCF91DF910895DF9376
:102A0000CF9300D00F92CDB7DEB78091A501882378
:102A100049F48091B501882329F08091B501813076
:102A200009F0C7C08091A501882319F481E0809343
:102A3000B5018CE991E00E94CA138EE991E00E94F1
:102A4000CA138091B501282F30E03B832A838A8105
:102A50009B818130910571F12A813B8122303105C2
:102A600009F47CC08A819B81009709F09BC083EBAD
:102A700091E00E94AA1388E991E00E94CA138AE9B2
:102A800091E00E94CA1319820CC088E893E165E0C6
:102A90000E94C8098091A501882331F089818F5F48
:102AA00089838981882389F381E08093B50110921D
:102AB000A601BCC08091A5018823D9F48091A6010C
:102AC000823061F080EA91E00E94AA1388E991E0E7
:102AD0002EE931E0B90145E00E94B01481E0809315
:102AE000A60182E08093B5018AE991E00E94AA13D1
:102AF00017C0198212C088E991E060E070E045E0FB
:102B00000E94B0148091A501882321F481E0809374
:102B1000A60106C089818F5F89838981882359F343
:102B200088E991E00E94CA138EE991E00E94CA13DD
:102B30008091A601882339F482E08093B50181E079
:102B40008093A60173C08091A601823009F06EC007
:102B50001092B50181E08093A60168C083EB91E0FB
:102B60000E94CA1388E991E00E94CA138AE991E0A1
:102B70000E94AA1319820CC088E893E165E00E94C4
:102B8000C8098091A501882331F089818F5F8983ED
:102B90008981882389F382E08093A60181E0809374
:102BA000B50144C082E08093B50181E08093A60125
:102BB0003DC08CE991E00E94AA138EE991E00E9449
:102BC000CA1380EA91E00E94CA1383EB91E00E944D
:102BD000CA1388E991E00E94CA138AE991E00E9431
:102BE000AA1388E893E165E00E94C8098AE991E0A8
:102BF0000E94CA1388E991E02EE931E0B90145E06D
:102C00000E94B01488E991E00E94CA138EE991E015
:102C10000E94CA1380EA91E00E94AA1381E0809387
:102C2000A5011092B50181E08093A6010F900F904D
:102C30000F90CF91DF9108951F920F920FB60F92D0
:102C40001124DF93CF93CDB7DEB71092A501CF91BA
:102C5000DF910F900FBE0F901F901895DF93CF93C9
:102C600000D00F92CDB7DEB783E0FE013196DF01D1
:102C7000982F1D929A95E9F781E08983CE010196FC
:102C80000E9409140F900F900F90CF91DF9108953B
:102C9000DF93CF9300D000D000D0CDB7DEB78D83C7
:102CA00081E08A831B828D818C8381E08983CE01C0
:102CB00002960E94291489838981882311F41E8237
:102CC00005C0CE0102960E9449148E838E812696FD
:102CD0000FB6F894DEBF0FBECDBFCF91DF91089540
:102CE000DF93CF9300D0CDB7DEB781E089831A821E
:102CF000CE0101960E948A130F900F90CF91DF9121
:102D00000895DF93CF9300D000D0CDB7DEB781E038
:102D10008A831B8281E08983CE0102960E948A13F6
:102D200089838981882311F41C8205C0CE01029613
:102D30000E94AA138C838C810F900F900F900F909C
:102D4000CF91DF910895DF93CF9300D000D0CDB71E
:102D5000DEB781E08A831B8281E08983CE010296FF
:102D60000E948A1389838981882311F41C8205C0FB
:102D7000CE0102960E94CA138C838C810F900F9013
:102D80000F900F90CF91DF910895DF93CF9300D0F4
:102D900000D0CDB7DEB781E08A831B8281E08983D2
:102DA000CE0102960E948A1389838981882311F4B7
:102DB0001C8205C0CE0102960E94EA138C838C818E
:102DC0000F900F900F900F90CF91DF910895DF93A8
:102DD000CF9300D0CDB7DEB789836A8389816A81BA
:102DE0000E9449120F900F90CF91DF910895DF93C9
:102DF000CF9300D0CDB7DEB789836A8389816A819A
:102E00000E9497120F900F90CF91DF910895DF935A
:102E1000CF930F92CDB7DEB7898389810E94E512E7
:102E20000F90CF91DF910895DF93CF930F92CDB79D
:102E3000DEB7898389810E9433130F90CF91DF9190
:102E40000895DF93CF9300D00F92CDB7DEB789837B
:102E50006A834B8389816A814B810E94370F0F906F
:102E60000F900F90CF91DF910895DF93CF9300D013
:102E70000F92CDB7DEB789836A834B8389816A81DC
:102E80004B810E9429100F900F900F90CF91DF91EE
:102E90000895DF93CF9300D0CDB7DEB789836A83DF
:102EA00089816A810E941B110F900F90CF91DF9151
:102EB0000895DF93CF9300D0CDB7DEB789836A83BF
:102EC00089816A810E94BC110F900F90CF91DF9190
:102ED0000895DF93CF93CDB7DEB70E94840ECF91D4
:102EE000DF910895DF93CF93CDB7DEB70E948C0EAC
:102EF000CF91DF910895DF93CF930F92CDB7DEB7D7
:102F0000898389810E94940E0F90CF91DF9108955B
:102F1000DF93CF930F92CDB7DEB7898389810E946B
:102F2000B50E0F90CF91DF910895DF93CF930F925D
:102F3000CDB7DEB7898389810E94DD0E0F90CF91D6
:102F4000DF910895DF93CF93CDB7DEB70E940A0FCC
:102F5000CF91DF910895DF93CF93CDB7DEB70E9475
:102F6000190FCF91DF910895DF93CF93CDB7DEB7DF
:102F70000E94280FCF91DF910895DF93CF9300D067
:102F80000F92CDB7DEB789836A834B8389816A81CB
:102F90004B810E9471080F900F900F90CF91DF919D
:102FA0000895DF93CF9300D00F92CDB7DEB79A8309
:102FB00089836B8389819A816B810E94C8090F90F4
:102FC0000F900F90CF91DF910895DF93CF9300D0B2
:102FD0000F92CDB7DEB789837B836A832A813B81D9
:102FE0008981B9010E947F090F900F900F90CF91B6
:102FF000DF910895DF93CF93CDB7DEB70E942E0AFD
:10300000CF91DF910895DF93CF9300D00F92CDB78A
:10301000DEB789836A834B8389816A814B810E94F1
:10302000410A0F900F900F90CF91DF910895DF9399
:10303000CF9300D00F92CDB7DEB79A8389836B838D
:1030400089819A816B810E94590B0F900F900F908C
:10305000CF91DF910895DF93CF9300D00F92CDB73A
:10306000DEB789837B836A832A813B818981B901A9
:103070000E94BF0B0F900F900F90CF91DF9108959A
:10308000DF93CF93CDB7DEB70E94080CCF91DF91CD
:103090000895DF93CF9300D00F92CDB7DEB7898329
:1030A0006A834B8389816A814B810E94180C0F903F
:1030B0000F900F90CF91DF910895DF93CF9300D0C1
:1030C00000D0CDB7DEB79A8389836B8389819A81DB
:1030D0006B810E94AD0D0F900F900F900F90CF91CC
:1030E000DF910895DF93CF9300D00F92CDB7DEB775
:1030F00089837B836A832A813B818981B9010E940C
:103100001A0E0F900F900F90CF91DF910895DF93DB
:10311000CF93CDB7DEB70E94710ECF91DF910895A6
:10312000DF93CF93CDB7DEB786EB91E00E948A1391
:1031300087EA91E00E948A13CF91DF910895DF938F
:10314000CF93CDB7DEB70E9483140E94FF14FDCF4A
:103150002F923F924F925F926F927F928F929F92A7
:10316000AF92BF92CF92DF92EF92FF920F931F9395
:10317000CF93DF93CDB7DEB7CA1BDB0B0FB6F89446
:10318000DEBF0FBECDBF09942A88398848885F8486
:103190006E847D848C849B84AA84B984C884DF80F7
:1031A000EE80FD800C811B81AA81B981CE0FD11DDB
:1031B0000FB6F894DEBF0FBECDBFED0108953BD032
:1031C00080F09F3740F491110EF44DC060E070E044
:1031D00080E89FE3089526F01B16611D711D811D77
:1031E00001C01BC0882371F4772321F09850872BEE
:1031F000762F07C0662311F499270DC09051862BB6
:1032000070E060E02AF09A95660F771F881FDAF762
:10321000880F9695879597F908959F3F31F09150C3
:1032200020F4879577956795B795880F911D9695AA
:10323000879597F9089525D0A0F0BEE7B91788F4CF
:10324000BB279F3860F41616B11D672F782F88278B
:10325000985FF7CF869577956795B11D93959639C9
:10326000C8F30895E894BB2766277727CB0197F921
:10327000089557FD9058440F551F59F05F3F71F066
:103280004795880F97FB991F61F09F3F79F08795CD
:103290000895121613061406551FF2CF4695F1DF56
:1032A00008C0161617061806991FF1CF86957105E6
:0A32B000610508940895F894FFCF1B
:1032BA0000000000000000000001020203030303F3
:1032CA0004040404040404040505050505050505AC
:1032DA00050505050505050506060606060606068C
:1032EA000606060606060606060606060606060674
:1032FA00060606060606060607070707070707075C
:10330A000707070707070707070707070707070743
:10331A000707070707070707070707070707070733
:10332A000707070707070707070707070707070723
:10333A00070707070707070708080808080808080B
:10334A0008080808080808080808080808080808F3
:10335A0008080808080808080808080808080808E3
:10336A0008080808080808080808080808080808D3
:10337A0008080808080808080808080808080808C3
:10338A0008080808080808080808080808080808B3
:10339A0008080808080808080808080808080808A3
:1033AA000808080808080808080808080808080893
:1033BA00080808080808080800000100080040007A
:1033CA0000010004000000000000010008004000A5
:1033DA0000010004000000000000010008002000B5
:1033EA004000800000010004000100020100010108
:0A33FA0001020302000101000100BE
:00000001FF
